:020000040800F2
:100000000000012089050008D9050008D90500086D
:10001000D9050008D9050008D9050008000000002E
:10002000000000000000000000000000D9050008EA
:10003000D905000800000000D9050008D90500080E
:1000400000000000D9050008D9050008D9050008FE
:10005000D9050008D9050008D9050008D905000808
:10006000D9050008D9050008D905000800000000DE
:100070000000000000000000000000000000000080
:100080000000000000000000D9050008000000008A
:10009000000000000000000000000000D90500087A
:1000A000D9050008D9050008D9050008D9050008B8
:1000B000D9050008D905000800000000D90500088E
:1000C000D9050008D9050008D9050008D905000898
:1000D000D90500080000000000000000000000003A
:1000E000D9050008D9050008D9050008000000005E
:1000F0000000000000000000000000000000000000
:1001000000000000D905000800000000D905000823
:1001100000000000000000000000000000000000DF
:1001200000000000000000000000000000000000CF
:1001300000000000000000000000000000000000BF
:10014000000000000000000000000000D9050008C9
:10015000000000000000000000000000000000009F
:10016000D9050008D90500080000000000000000C3
:10017000000000000000000000000000000000007F
:1001800000000000D9050008000000000000000089
:04019000D905000885
:1001940010B5054C237833B9044B13B10448AFF3BD
:1001A40000800123237010BD2C04002000000000F7
:1001B4004007000808B5034B1BB103490348AFF3DC
:1001C400008008BD00000000300400204007000843
:1001D40080B483B000AF7860084611461A460346DF
:1001E400FB700B46BB7013467B70204B1A6B7B78FD
:1001F400012101FA03F31D4913430B63BB78002B60
:1002040016D07B681A68FB785B00012101FA03F3BE
:100214001A437B681A607B681A68FB785B000133B9
:10022400012101FA03F3DB431A407B681A6016E0EC
:100234007B681A68FB785B00012101FA03F3DB4356
:100244001A407B681A607B681A68FB785B0001338C
:10025400012101FA03F3DB431A407B681A6000BFF3
:100264000C37BD465DF8047B704700BF0038024080
:1002740080B483B000AF78600B46FB701346BB704C
:100284007B681A68FB785B00012101FA03F31340D1
:10029400002B18D0BB78002B09D07B685A69FB78F7
:1002A400012101FA03F31A437B685A6109E07B6870
:1002B4005A69FB78012101FA03F3DB431A407B6896
:1002C4005A61002300E0012318460C37BD465DF84F
:1002D400047B704780B483B000AF78600B46FB703A
:1002E4007B681A68FB785B00012101FA03F3134071
:1002F400002B0AD17B681B69DAB2FB78012101FA71
:1003040003F3DBB21340DBB200E0002318460C37E2
:10031400BD465DF8047B704780B586B000AF01230D
:10032400002203213D48FFF753FF0123012200214E
:100334003A48FFF74DFF0123012201213748FFF717
:1003440047FF0123012202213448FFF741FF334BC9
:10035400DB68324A43F04003D360304BDB682F4AFA
:1003640023F08003D3602E4A3B1D92E8030083E808
:10037400030001237B6101233B6103212748FFF72D
:10038400A9FF0346002B45D10023FB6002E0FB6874
:100394000133FB60FB684CF24F329342F7DD0321DB
:1003A4001E48FFF797FF0346002BE6D13B69002B5D
:1003B400E3D03A1D7B6913441B7803F00103DBB2DD
:1003C4001A4600211548FFF753FF3A1D7B69134471
:1003D4001B7803F00203DBB21A4601210F48FFF732
:1003E40047FF3A1D7B6913441B7803F00403DBB217
:1003F4001A4602210948FFF73BFF7B69062B04DC00
:100404007B6901337B617B6900E000237B6100230E
:100414003B61B2E701233B61AFE700BF0004024048
:100424005807000880B500AF164BD3F88830154A3A
:1004340043F47003C2F88830134B1B68124A43F02C
:1004440001031360104B00229A600F4B1B680E4A85
:1004540023F0847323F4803313600B4B0B4A5A60EC
:10046400094B1B68084A23F480231360064B0022BF
:10047400DA6000F00DF8034B4FF000629A6000BFA1
:1004840080BD00BF00ED00E00038024010300024C1
:1004940080B483B000AF00237B6000233B60354B06
:1004A4001B68344A43F480331360324B1B6803F4F3
:1004B40000333B607B6801337B603B68002B03D1D6
:1004C4007B68B3F5A04FF0D12A4B1B6803F40033CB
:1004D400002B02D001233B6001E000233B603B681A
:1004E400012B40D1234B1B6C224A43F080531364ED
:1004F400214B1B68204A43F4404313601D4B1D4AA3
:100504009B6893601B4B1B4A9B689360194B9B68C9
:10051400184A43F480539360164B184A5A60154B9B
:100524001B68144A43F08073136000BF114B1B68AF
:1005340003F00073002BF9D0114B40F202721A60E1
:100544000C4B9B680B4A23F003039360094B9B6895
:10055400084A43F00203936000BF064B9B6803F014
:100564000C03082BF9D100BF0C37BD465DF8047BA2
:10057400704700BF00380240007000401954410722
:10058400003C02400D4885460D480E490E4A0023A2
:1005940002E0D458C4500433C4188C42F9D30B4A33
:1005A4000B4C002301E013600432A242FBD3FFF79B
:1005B40039FF00F011F8FFF7AFFEFEE7000001205D
:1005C400000000202C040020700700082C040020E8
:1005D4006C040020FEE7000070B50D4E0D4D761B37
:1005E400B61006D00024013455F8043B9847A642BF
:1005F400F9D1094E094D761B00F0A0F8B61006D0CB
:100604000024013455F8043B9847A642F9D170BD43
:1006140064070008640700086C0700086407000802
:10062400024B13B1024800F005B870470000000007
:1006340045060008002301461A46184600F01EB875
:1006440038B50A4C0A4D641BA4100AD004F1804347
:10065400013B05EB8305013C55F804399847002C10
:10066400F9D1BDE8384000F06FB800BF700700084A
:100674006C070008704700BF704700BF2DE9F843BE
:100684002B4D0646286898460F469146FFF7F2FF21
:10069400284B1C68D4F84831002B3DD05A681F2AD7
:1006A4000DDC02F1010C16BB0232C3F804C0286849
:1006B40043F82270FFF7E0FF0020BDE8F8831E4BEB
:1006C4007BB34FF4C870AFF30080034648B3D4F84B
:1006D40048210021C0E900214FF0010CC4F8480171
:1006E4000A46C0F88811C0F88C11002EDCD003EB48
:1006F40082010124C1F88890D3F8880194402043F2
:10070400022EC3F88801C1F80881CDD1D3F88C1129
:100714000C43C3F88C41C7E704F5A673C4F8483109
:10072400BCE72868FFF7A8FF4FF0FF30C5E700BF1C
:10073400280400206007000800000000F8B500BF8E
:10074400F8BC08BC9E467047F8B500BFF8BC08BCAE
:040754009E46704706
:0C07580000010204030506070000002059
:0807640025060008B901000898
:04076C0095010008EB
:1007700000000000EC02002054030020BC03002015
:100780000000000000000000000000000000000069
:100790000000000000000000000000000000000059
:1007A0000000000000000000000000000000000049
:1007B0000000000000000000000000000000000039
:1007C0000000000000000000000000000000000029
:1007D0000000000000000000000000000000000019
:1007E0000000000000000000000000000000000009
:1007F00000000000000000000000000000000000F9
:1008000000000000000000000000000000000000E8
:1008100000000000000000000100000000000000D7
:100820000E33CDAB34126DE6ECDE05000B0000009C
:1008300000000000000000000000000000000000B8
:1008400000000000000000000000000000000000A8
:100850000000000000000000000000000000000098
:100860000000000000000000000000000000000088
:0C0B9000000000000000000048040020ED
:040000050800058961
:00000001FF
